:020000040000FA
:1000000060090020250200006502000009020000CE
:10001000690200006B0200006D0200000000000099
:100020000000000000000000000000006F0200005F
:100030007102000000000000730200007502000061
:1000400077020000770200007702000077020000CC
:1000500077020000770200007702000077020000BC
:1000600077020000770200007702000077020000AC
:10007000770200007702000077020000770200009C
:10008000770200007702000077020000770200008C
:10009000770200007702000077020000770200007C
:1000A000770200007702000077020000770200006C
:1000B000770200007702000077020000770200005C
:1000C000770200007D110000770200007702000037
:1000D000B9110000770200007702000077020000EB
:1000E000750C000077020000770200007702000024
:1000F000770200007702000077020000770200001C
:10010000770200007702000077020000770200000B
:1001100077020000770200007702000077020000FB
:1001200077020000770200007702000077020000EB
:1001300077020000770200007702000077020000DB
:1001400077020000770200007702000077020000CB
:1001500077020000770200007702000077020000BB
:1001600077020000770200007702000077020000AB
:10017000770200007702000077020000770200009B
:10018000770200007702000077020000770200008B
:10019000770200007702000077020000770200007B
:1001A000770200007702000077020000770200006B
:1001B000770200007702000077020000770200005B
:1001C000770200007702000077020000770200004B
:1001D000770200007702000077020000770200003B
:1001E000770200007702000077020000770200002B
:1001F00077020000DFF80CD000F09EF800480047BE
:10020000DF1900006009002004207146084202D076
:10021000EFF3098001E0EFF308807146004A1047D0
:10022000010C000014484FF0590101604FF0160115
:1002300001604FF0880101601048416841F480413D
:1002400041600F48416841F002014160416841F05E
:10025000040141600B48804707484FF000010160EE
:1002600009480047FEE7FEE7FEE7FEE7FEE7FEE798
:10027000FEE7FEE7FEE7FEE7000100400002004067
:10028000007000400D100000F501000040EA01037D
:100290009B0703D009E008C9121F08C0042AFAD23C
:1002A00003E011F8013B00F8013B521EF9D2704700
:1002B000D2B201E000F8012B491EFBD270470022A8
:1002C000F6E710B513460A4604461946FFF7F0FF55
:1002D000204610BD2DE9F05F0546002092469B4662
:1002E00088460646814640241BE02846414647464C
:1002F000224600F042F853465A46C01A914110D3A4
:1003000011461846224600F029F82D1A67EB01081D
:100310004F4622460120002100F020F817EB00098B
:100320004E41201EA4F10104DFDC484631462A4636
:100330004346BDE8F09F0000064C074D06E0E0682C
:1003400040F0010394E8070098471034AC42F6D31C
:10035000FFF754FF5C1B00007C1B0000202A04DB1D
:10036000203A00FA02F1002070479140C2F12003C8
:1003700020FA03F3194390407047202A04DB203A07
:1003800021FA02F00021704721FA02F3D040C2F1B5
:10039000200291400843194670474FF08040D0F842
:1003A000401241F48031C0F84012704700F01F0243
:1003B00001219140034A800F02EB800002680A434A
:1003C00002607047040200402DE9F84F0D460446D4
:1003D000FFF7E3FF4FF08040484ED0F80012C4B161
:1003E00041F00401C0F80012102000F043FA4FF46D
:1003F00000200090424843492844B34688426DD8C3
:100400004FF000094FF0FF324F464E46AE460120F6
:1004100015E041F00101C0F80012012000F02AFAB5
:100420000020E6E7F2B3032839D0042802D00228DE
:1004300005D102E04FEA8E0501E04FEA4E050223A6
:100440006AB3BBFBF3F1304CDFF8BCC00C44CCF119
:10045000000C644520D80224C1F35D0ADFF8A0C077
:100460000AFB04F101EB0C08DFF8A0C0E0450ED850
:10047000B1EB950F02D9A1EB950101E0C1EB95011C
:10048000914204D20A0099462746064604D040F21B
:100490000121641C8C42E1D95B1C202BD0D9401C6B
:1004A000042800E000E0BDD91948009900EB86302F
:1004B000184A084302EB49210843B91E08434FF08C
:1004C0008041C1F84002042000F0D4F906FB09F68F
:1004D000BBFBF6F078434000BDE8F88F5CB10E49F5
:1004E0004FF08040C0F84012042000F0C3F9BDE88E
:1004F000F84F00F0D9B844F21E21F1E7001BB70015
:10050000800F05FD8074D21A00F7C2FFC06878041E
:1005100000C0FFFF00FEFFFF1E4208004FF08041B9
:10052000D1F800220243C1F80022704710B500F054
:1005300049FD0148006810BD0000002010B500F022
:1005400041FD0148006810BD000000201FB51D4995
:100550001EC98DE81E001C4A9106904205D1D1F8B3
:10056000180200F0010004B010BD184A904204D1F6
:10057000D1F81802C0F34000F5E7154A904204D1C3
:10058000D1F81802C0F30020EDE7124A904204D1DE
:10059000D1F81802C0F34020E5E7410E49070ED01C
:1005A000C0F301725DF822100B4A8958C0F3426211
:1005B000C0F304508240114021FA00F0D3E700203C
:1005C000D1E70000D41A0000100000A2110010A210
:1005D000120080A2130090A21002004010B500F09B
:1005E000F1FC4FF08041D1F834024207134817D094
:1005F000D1F8342202F00702012A13D0D1F83422B4
:1006000002F00702022A10D0D1F8342202F00702C9
:10061000032A0DD0D1F8341201F0070104290AD0C1
:10062000006810BD0068400810BD0068800810BD5B
:100630000068C00810BD0068000910BD000000205F
:1006400010B500F0BFFC4FF08041D1F8340210F03B
:10065000700F144817D0D1F83422C2F30212012AC5
:1006600013D0D1F83422C2F30212022A10D0D1F8EA
:100670003422C2F30212032A0DD0D1F83412C1F38E
:10068000021104290AD0006810BD0068400810BD9E
:100690000068800810BD0068C00810BD006800092F
:1006A00010BD00000000002008B510A1002009685E
:1006B00000914FF08041D1F8401211F4A02F13D1D6
:1006C0000B488A0310D4C1F30800C1F38132094BEF
:1006D000801C1DF80220C1F344215843491C11FB22
:1006E00002F1B0FBF1F0C00008BD000001020204FD
:1006F000001BB700C0C62D0070B54FF08044064601
:10070000D4F8500200F010051B48864200D9064676
:10071000D4F8000240F00400C4F80002102004F5F0
:10072000007400F0A7F8206940F007002061206AFB
:1007300020F00F0020622068A4F50074C007314645
:1007400004D00020FFF740FE064608E04FF40020EA
:10075000FFF73AFE0646D4F8500200F010050021DB
:10076000022000F00BF82DB9D4F8000220F00400AC
:10077000C4F80002304670BD00B0710B2DE9F041A5
:100780004FF080440746D4F850020E4600F01005A2
:10079000D4F8000240F00400C4F80002102004F570
:1007A000007400F067F8206940F007002061206ABB
:1007B00020F00F0030432062206920F0070038430A
:1007C0002061A4F5007400F0FDFB002D05D1D4F8E4
:1007D000000220F00400C4F80002BDE8F08100002F
:1007E000F0B510F47F3F2ED04FF08043D3F8F431B2
:1007F000DFF878C0DFB21D4BC0F381440C3B6FEAD9
:1008000090450CF1040603EB8403012F02D0022C67
:100810000DD001E0022C02D0AC070AD00AE0C3439D
:10082000DC06134B06D000F01F041D2C02D06346DB
:1008300000E033461C68C0F38725C0F34416B5407A
:10084000AC4314431C60420E52070ED0084BC0F359
:100850000172183B03EB82021368C0F34264C0F3D9
:1008600004508440A3430B431360F0BD2C020040AE
:100870002802004030B5012405460849A20705E0DA
:10088000081EA1F1010101DC002404E0D2F850327D
:1008900035EA0300F4D1204630BD000080F5200089
:1008A0007FB5134C0020A060A0680028FCD0104841
:1008B000103041880288438885885B1B5B1C458813
:1008C0009BB24FF6FF768088751B404280B2E46889
:1008D00064265E43B6FBF0F6B4FBF0F40DF1040CB5
:1008E00000958CE85100034800F022FE7FBD000017
:1008F00030000020141B00000948016881F001014C
:1009000001600848D0F8041241F00051C0F8041208
:10091000D0F8A4100029FBD00521FFF7C1BF0000CB
:10092000C44900400090054010B50D4940F2251023
:100930000C4B4880B3FBF0F0C8600B4C40F2F65211
:1009400000230521204600F04FF82021204600F02A
:100950003DF92046BDE81040202100F0FBB8000022
:100960003000002000B0710B009005407CB51A4D9E
:100970000121284600F0B2F904239A0200212846FA
:1009800000F0E0F900241549CDE900144FF440735C
:10099000134A2146284600F0C4F9002325221946AF
:1009A0002846009400F0E0F9502304220021284654
:1009B00000F0ACF900221146284600F040F928204A
:1009C00000F032F902B00623BDE870400022052194
:1009D000044800F0CFB80000008000404000002034
:1009E00048920540009005402DE9F0470546012456
:1009F000A007DFF89880D0F8180291460E464FF60F
:100A0000FF77454502D100F0010001E000F002004F
:100A100030B100F0D7FA454505D1FFF7DFFD04E01E
:100A2000FFF742FE01E0FFF70BFE4FF47A71B0FBD7
:100A3000F1F14FF4805816486043B0FBF1F048459F
:100A40000CD2621C43F6095C00FB01F302FB0CF2C2
:100A5000B3EB821F02D2641C4445ECD9710805EB4C
:100A60008101641E4C616A687300012199408A43C8
:100A70000A436A6069684FF48032B240914369600A
:100A800005EB86010F63BDE8F0870000008005409C
:100A900040420F002DE9F04705460124A007DFF88A
:100AA000B090D0F818029A4690460F464FF6FF765F
:100AB0004D4502D100F0010001E000F0020030B12C
:100AC00000F080FA4D4505D1FFF788FD04E0FFF7FF
:100AD000EBFD01E0FFF7B4FD4FF4803240F6FF7309
:100AE000B0FBF8F1B1FBF4F1914201D20E4602E005
:100AF000641C9C42F4D304FB06F1B0FBF1F37808CC
:100B000005EB8000641E4461780001218140BA40F9
:100B10006C680A4394436C6005EB8702761E16638B
:100B2000761C0AFB06F46426B4FBF6F4146555F84B
:100B3000B04F4FF001128240022694438640344366
:100B40002C6068689043084368601846BDE8F087E9
:100B500000800540D0F800220A43C0F80022D0F8F7
:100B600004220A43C0F80422704750F8D82F0A43E1
:100B70000260704770B5D0F83C52CC074908C900F4
:100B80001E268E40E40E44EAC2021A4342F00102DD
:100B9000B5438A401543C0F83C5270BD10B50948B2
:100BA000094C0F22037802212046FFF773FF04212E
:100BB0002046FFF7DAFF2046BDE81040042100F090
:100BC00005B800003000002000800540026A0A439A
:100BD00002627047F0B500230127032507FA03F4EA
:100BE0008C4309D106685C0005FA04FC26EA0C0671
:100BF00002FA04F4264306605B1C102BEED3F0BD12
:100C0000044603A000F094FC204600F0F7FEFEE747
:100C1000496E2048617264204661756C7420486199
:100C20006E646C65720A000000F01F0201219140A1
:100C30004009800000F1E020C0F800117047012356
:100C40008B404AB1012A0DD0022A04D1D0F83814C1
:100C50001943C0F838147047D0F818141943C0F875
:100C60001814704700EB0110016821F08001016049
:100C70007047000070B5114800681149C2074FF075
:100C8000010408D00D48001D0268D20701D00222DD
:100C90008A60046070BD80070BD5084D0835286850
:100CA000C00704D08C60FFF761FEFFF73DFE2C60AB
:100CB00070BDBDE8704003A000F03ABC1C84004049
:100CC00030000020756E6B6E6F776E20696E7465F4
:100CD00072727570742021210A00000070B5002224
:100CE000094D0126134606FA02F40C4203D000EB2C
:100CF00002142360AB54521C102AF4D3D0F8002401
:100D00000A43C0F8002470BD4800002000EB011029
:100D1000016821F07401016001681A431143016008
:100D2000704730B500EB0110DDE903454260846097
:100D3000016821F47061016001682B43194301606F
:100D400030BD000010B500EB011001684CF6FF74D7
:100D5000214001600168034C04EB03431343194332
:100D6000016010BD0000FFFF30B54D4D039C102900
:100D70006A547DD2DFE801F008101720272F363F94
:100D8000464E555E656D7489D0F8805425F07F0518
:100D90001543C0F880546BE0D0F8805425F4FE452C
:100DA00045EA022205E0D0F8805425F4FE0545EA24
:100DB0000242C0F880245BE0D0F8805425F0FE4564
:100DC00045EA0262F5E7D0F8845425F07F05154323
:100DD000C0F884544CE0D0F8845425F4FE4545EA2C
:100DE000022205E0D0F8845425F4FE0545EA0242CB
:100DF000C0F884243CE0D0F8845425F0FE4545EA50
:100E00000262F5E7D0F8885425F07F051543C0F855
:100E100088542DE0D0F8885425F4FE4545EA022296
:100E200005E0D0F8885425F4FE0545EA0242C0F8F2
:100E300088241DE0D0F8885425F0FE4545EA02627A
:100E4000F5E7D0F88C5425F07F051543C0F88C5495
:100E50000EE0D0F88C5425F4FE4545EA022205E068
:100E6000D0F88C5425F4FE0545EA0242C0F88C24E3
:100E700000EB0110016821F003016BB1891C0160D6
:100E800008490968611AC16030BDD0F88C5425F05A
:100E9000FE4545EA0262E9E7491C016030BD0000F9
:100EA000480000203C84004070B55920840716217A
:100EB0008822C4F80001C4F80011C4F80021D4F855
:100EC0000031002BF5D04FF04020D0F8401121F038
:100ED000F001C0F840110120FFF720FB0120FFF7CF
:100EE000C9FC2548FFF708FC1120C4F83402234D43
:100EF0002846FFF75BFA002211462846FFF770FCF0
:100F00000120FFF753FA1E4D2846FFF74FFA002243
:100F10004FF4E0412846FFF763FC1A4D2846FFF7DF
:100F200045FA002211462846FFF75AFC206B20F4B0
:100F3000704040F450402063134D2846FFF736FAC6
:100F4000002211462846FFF74BFCA06B20F0706092
:100F5000A063A06B40F04060A06300F033F8E06B4A
:100F600020F47F00E063E06B40F4CC00E0630020FD
:100F7000C4F8000170BD000000B0710B103D805737
:100F80000300C05E100000A2110010A20121044A5B
:100F9000814002EB106002680A438A430260704796
:100FA0000800004006498A691202FCD408600A2839
:100FB00004D188690002FCD40D200860704700004D
:100FC0000000074010B5FFF76FFB0E4A4FF080435B
:100FD0009060D3F8101201F00701022903D002F14A
:100FE0000C0050F82100D3F8201201F00F01491C29
:100FF000B0FBF1F00449106008444900B0FBF1F087
:10100000506010BD0000002020A107001A480168B0
:1010100041F4700101601948C16C21F00F0141F0E9
:101020000801C1644FF08040D0F8981241F480214B
:10103000C0F89812D0F8081241F00201C0F8081266
:101040000F49D1F8042102F0F732C1F80421D1F898
:10105000082102F0F732C1F80821D0F8081221F077
:101060000201C0F808124FF04020D0F8401121F0E2
:10107000F001C0F84011704788ED00E000C000406A
:101080000010044010B50F4C012211462046FFF716
:10109000A1FD012202212046FFF79CFD0A4C4FF4DE
:1010A0007A724FF00061204600F04CF8206840F062
:1010B000005020602120FFF7B7FD206840F08040FD
:1010C000206010BDC04100400001054010B588B04F
:1010D0000446202217496846FFF7D8F8164A174BEE
:1010E0009003944204D1D0F81402C0F3022110E01E
:1010F0009C4204D1D0F81402C0F3023109E0104937
:10110000D0F814028C4202D1C0F3024101E0C0F3D6
:101110000251022903D05DF8210008B010BD9442AD
:1011200001D09C4202D1FFF759FAF6E7FFF788FA9F
:10113000F3E70000F41A000000000540000105403C
:101140000010054070B516460D460446FFF7BEFF79
:101150000023B6EB500F01D9022206E0B0FBF6F2F5
:10116000130E02D0591CB2FBF1F21D4325606260E0
:101170005B1C5A43B0FBF2F070BD00000B48816865
:10118000C1F3000100290FD001218160084988883E
:10119000421C8A80B0F57A7F06D9002088800548F5
:1011A000016881F001010160704700000001054005
:1011B00030000020C049004070B5224DE869224C43
:1011C000224AC0054FF0000313D594F80201401CD9
:1011D00084F8020100212E68D0882654401C80B279
:1011E000D080FF2800D9D380491CC9B20329F2D38B
:1011F00070BDE869C004FBD594F80301401C84F875
:10120000030104E02868D1886054491CD180A86992
:101210004004F7D5686820F011006860D380217819
:101220000BA000F085F9207800F0B2F811212846D3
:1012300000F0E4F8BDE870404FF482710248FFF717
:101240003EB8000000000740580000203000002099
:1012500055415254205258203A2030782532582097
:101260000D0A000010B52248FFF790FE214C4FF404
:10127000E131204600F0C6F83C21204600F04EF94E
:10128000A06820F0F00040F01000A060606840F618
:101290001101084360602420FFF7C6FC4FF48271FF
:1012A0001548FFF70CF8A069C000FCD51348FFF7FC
:1012B0004DF9014612A000F03BF9FFF737F901465E
:1012C00018A000F035F9FFF739F901461CA000F02D
:1012D0002FF9FFF783F901461FA000F029F9FFF766
:1012E000AFF90146BDE8104022A000F021B900008E
:1012F000100000040000074058000020110010A258
:10130000434C4B5F4765744D6F64756C65436C6F00
:10131000636B536F75726365203A202538640D0A3C
:10132000000000000D0A434C4B5F47657443505565
:1013300046726571203A202538640D0A00000000CD
:10134000434C4B5F47657448434C4B467265712074
:101350003A202538640D0A00434C4B5F47657450B2
:10136000434C4B3046726571203A202538640D0A93
:1013700000000000434C4B5F47657450434C4B31B9
:1013800046726571203A202538640D0A000000007D
:1013900030B4174A154C3128117812D0322816D0A3
:1013A0005A2801D07A281FD1BFF34F8F11490868FE
:1013B000114A00F4E06010430860BFF34F8F00BF94
:1013C000FDE75A2901D95A2106E0491C04E00A29FF
:1013D00001D20A2100E0491ECBB2137020460F2231
:1013E00030BC0221FFF756BB30BC7047008005407F
:1013F000300000200CED00E00400FA0542680A43CA
:10140000426070472DE9FF4104463C480F460025E5
:101410000FC88DE80F003A492E464FF080408C42AD
:1014200006D1D0F81412D0F82002C1F301652AE0E9
:1014300034498C4206D1D0F81412D0F82002C1F3FE
:1014400081652BE030498C4208D1D0F81C12D0F8CD
:101450003002C1F3016500F00F0621E02B498C42F8
:1014600008D1D0F81C12D0F83002C1F38165C0F366
:10147000031615E026498C4208D1D0F81C12D0F88A
:101480003002C1F30175C0F3032609E021498C4203
:1014900006D1D0F81C12D0F830028D0FC0F30336FD
:1014A000002020630320E060A0681B490840A06082
:1014B000E846012D02D1FFF7F7F80190002F1AD06E
:1014C00058F82510761CB1FBF6F000EB5700B0FB86
:1014D000F7F0801EB0F5803F0AD3B1FBF6F000EBC9
:1014E000C700B0FBF7F06FF0010101EB101001E055
:1014F00040F040506062BDE8FF810000A41A000087
:10150000000007400010074000200740003007405F
:1015100000400740005007400FFFF0FF026A22F032
:10152000FF020A430262416841F400614160704772
:101530000FB4054B10B503A9044A029800F018F83F
:1015400010BC5DF814FB0000D31900002C00002033
:1015500002E008C8121F08C1002AFAD1704770477C
:10156000002001E001C1121F002AFBD170470000DA
:101570002DE9FF4F8DB00F460546002606E02528D1
:101580000BD0DDE90F1290476D1C761C28780028DF
:10159000F5D111B03046BDE8F08F0024A246A14637
:1015A0000122EC4900E0044315F8013F203B02FA18
:1015B00003F00842F7D128782A2810D06FF02F02C4
:1015C0002878A0F13001092914D80AEB8A0102EB2E
:1015D000410144F0020400EB010A6D1CF0E701CF69
:1015E0005FEA000A03D544F40054CAF1000A44F04B
:1015F00002046D1C28782E2817D115F8010F44F02D
:1016000004042A280ED06FF02F022878A0F13001B0
:1016100009290AD809EB890102EB410100EB010914
:101620006D1CF2E757F8049B6D1C28786C280FD0CE
:1016300006DC4C2817D068280DD06A2814D104E0A5
:10164000742810D07A280FD10DE044F400140AE079
:1016500044F4801401E044F440146978814202D1DA
:1016600004F580146D1C6D1C2A786E2A1FD00CDCCA
:10167000632A31D004DC002A8BD0582A11D1A3E090
:10168000642A68D0692A0CD165E0732A2ED004DC64
:101690006F2A73D0702A04D19BE0752A6FD0782A04
:1016A0006ED01046DDE90F129047761C50E1C4F36E
:1016B0000250022806D0032809D0042801CF09D0FF
:1016C000066045E101CFF117C0E9006140E101CFBB
:1016D00006803DE106703BE117F8040B8DF8000031
:1016E00000208DF80100EB46012003E057F804BB11
:1016F0004FF0FF3061074FF0000102D40DE008F118
:101700000101884649450FDA8045F8DB1BF80810CF
:101710000029F4D108E008F1010188468142FADB92
:101720001BF808100029F6D1DDE90F23AAEB080009
:101730008146214600F036F9304400EB080604E00B
:10174000DDE90F121BF8010B9047B8F10108F7D241
:1017500021464846F7E00A21C4F302534FF0000B3C
:101760000891022B04D001CFC117032B09D00AE046
:10177000FF1D27F00707F7E8020108E032E01FE04D
:1017800020E000B2C117042B01D140B2C117031EE3
:1017900071F1000307DA4FF0000CD0EB0C006CEB9A
:1017A00001012D2302E0230504D52B238DF82430DD
:1017B000012303E0E30701D02023F7E7984658E030
:1017C0000A2110E010210EE010204FF0000B0890CD
:1017D0000CE010214FF0000B44F004044FF0080916
:1017E000089103E008214FF0000B0891C4F3025365
:1017F000022B04D001CF0021032B06D006E0FF1DF1
:1018000027F00707F7E8020103E080B2042B00D1BC
:10181000C0B24FF0000823072BD5702A07D0DDF89F
:1018200020C08CF0100C5CEA0B0C05D00EE04023BD
:101830008DF82430012308E050EA010306D030235C
:101840008DF824308DF8252002239846DDF820C03D
:101850008CF0080C5CEA0B0C0BD150EA010301D1AF
:10186000630706D530238DF824304FF00108A9F125
:101870000109582A04D038A20B9208AA0A920BE058
:101880003AA2F9E75B46089AFEF724FD0B9B9B5CA6
:101890000A9A521E0A92137050EA0102F2D10A9873
:1018A000ADEB000000F1200B600702D524F480347A
:1018B00001E04FF00109D94502DDA9EB0B0000E082
:1018C000002000EB0B0141440890AAEB010AE00361
:1018D00006D4DDE90F232146504600F063F80644A4
:1018E0004FF0000908E009A911F80900DDE90F121D
:1018F000904709F10109761CC145F4DBE0030CD5E2
:10190000DDE90F232146504600F04CF8064404E080
:10191000DDE90F1230209047761C0899481E089088
:101920000029F5DC08E00A980A990078491C0A9118
:10193000DDE90F129047761CBBF10001ABF1010B02
:10194000F1DC21465046DDE90F2300F019F806448A
:101950006D1C1BE60928010030313233343536372F
:1019600038396162636465660000000030313233EB
:10197000343536373839414243444546000000008B
:101980002DE9F041044600251E461746880404D47C
:1019900005E039462020B0476D1C641EF9D5284665
:1019A000BDE8F0812DE9F041044600251E46904631
:1019B000C80301D5302700E02027880404D505E0BE
:1019C00041463846B0476D1C641EF9D52846BDE82F
:1019D000F08110B50446FFF7E5FA204610BDFFF789
:1019E00063FAFFF73FFCFFF74DFBFFF7D7F8FEF771
:1019F000BDFFFEF799FFFEF77FFFFCE710B5044639
:101A0000016810A0FFF794FD11A06168FFF790FD39
:101A100012A0A168FFF78CFD13A0E168FFF788FD15
:101A200014A02169FFF784FD15A06169FFF780FD0F
:101A300016A0A169FFF77CFDE169BDE8104016A082
:101A4000FFF776BD723020203D20307825780A00DF
:101A5000723120203D20307825780A007232202013
:101A60003D20307825780A00723320203D203078E0
:101A700025780A00723132203D20307825780A001E
:101A80006C7220203D20307825780A007063202079
:101A90003D20307825780A00707372203D20307820
:101AA00025780A00001BB70000000000008000003D
:101AB000001BB700001BB700000000000080000002
:101AC000001BB700001BB7000000000000800000F2
:101AD000001BB70000000000040000000800000028
:101AE0000C00000000000000040000000C000000DA
:101AF00010000000001BB700008000000000000084
:101B0000000000000000000010270000000000009E
:101B1000001BB700526973696E673D2535642C461A
:101B2000616C6C696E673D2535642C486967683D5A
:101B30002535642C4C6F773D2535642C546F7461CA
:101B40006C3D2535642C467265713D2535642C4409
:101B50007574793D2533642E0D0A00007C1B00004E
:101B6000000000204800000050150000C41B0000C9
:101B7000480000201809000060150000001BB70095
:101B80000C000000001BB700001BB7000080000025
:101B9000000000001027000000000000000000000E
:101BA00000000000001BB700000000001E00000045
:101BB0000000000000000000000000000000000025
:041BC0000000000021
:0400000500000225D0
:00000001FF
